S01A0000476F6C6648616E646963617048656C7065722E737265630A
S11300000C944B000C9460000C9460000C94600001
S11300100C9460000C9460000C9460000C946000DC
S11300200C9460000C9460000C9460000C946000CC
S11300300C9460000C9460000C9460000C946000BC
S11300400C9460000C9460000C9460000C946000AC
S11300500C9460000C9460000C9460000C9460009C
S11300600C9460000C9460006A00700077007F00BC
S1130070880090009900AE00AF00B000B100B2005B
S1130080B300B400B500BF00C000C100C200C3008B
S1130090C400C500C60011241FBECFEFD8E0DEBFE8
S11300A0CDBF11E0A0E0B1E0E6E0F3E002C00590CE
S11300B00D92A431B107D9F70E9425010C94810156
S11300C00C94000087309105F0F5FC01EC5CFF4FC7
S11300D00C947B0196B181E08927817090E00895AA
S11300E086B1869591E08927817090E0089586B164
S11300F08695869591E08927817090E0089586B170
S113010086958695869591E08927817090E008957B
S113011086B182958F7091E08927817090E008956F
S113012086B182958695877091E08927817090E0E9
S1130130089586B1829586958695837091E0892786
S1130140817090E0089580E090E0089588309105F2
S113015068F4FC01E55CFF4F0C947B01289A299A12
S11301602A9A2B9A2C9A2D9A2E9A2F9A089588308F
S1130170910568F4FC01ED5BFF4F0C947B0128981A
S113018029982A982B982C982D982E982F98089572
S11301902A9A86EA8A95F1F700C02A9886EA8A950F
S11301A0F1F700C008950F931F93CF93DF93299A1B
S11301B0FC0101900020E9F73197E81BF90B1E16AA
S11301C01F065CF4EC018C010E0F1F1F99919BB963
S11301D00E94C800C017D107C9F7DF91CF911F91C2
S11301E00F91089529988130910529F460586BB9CD
S11301F00E94C8000895029721F460546BB90E94CC
S1130200C8000895299881E08BB90E94C800089518
S113021083ED90E30197F1F700C0000029982A9834
S113022096EA9A95F1F700C08CE38BB90E94C80056
S11302308CE08BB90E94C8000E94020161E070E06A
S113024081E090E00E94F2000895CF93DF93CDB750
S1130250DEB763970FB6F894DEBF0FBECDBF8FEF46
S11302608AB984B983ED90E30197F1F700C00000E7
S11302700E9408018EE0E0E0F1E0DE0111960190B9
S11302800D928A95E1F785E0EEE0F1E0DE011F963C
S113029001900D928A95E1F761E070E081E090E0D1
S11302A00E94F200CE0101960E94D30061E070E04A
S11302B082E090E00E94F200CE010F960E94D300EB
S11302C09FE322E48FE0915020408040E1F700C09A
S11302D000000E94020185E090E00E946200019704
S11302E029F480E090E00E94A600D6CF80E090E060
S11302F00E94B700D1CFEE0FFF1F0590F491E02DBF
S10903000994F894FFCFFC
S11303064261636F6E20697320676F6F6400456294
S1070316626100001C
S9030000FC
